:0400000054EF00F0C9
:10000800FACF30F0FBCF31F0E9CF32F0EACF33F05E
:10001800E1CF34F0E2CF35F0D9CF36F0DACF37F090
:10002800F3CF38F0F4CF39F0F6CF3AF0F7CF3BF012
:10003800F8CF3CF0F5CF3DF0F3CF3EF0F4CF3FF0F2
:1000480060EC05F084A201D002D0010E01D0000EB0
:100058002F6E2F4684502F18FD0B2F18846E3EC02C
:10006800F3FF3FC0F4FF3DC0F5FF3CC0F8FF3BC0C5
:10007800F7FF3AC0F6FF39C0F4FF38C0F3FF37C0C6
:10008800DAFF36C0D9FF35C0E2FF34C0E1FF33C024
:10009800EAFF32C0E9FF31C0FBFF30C0FAFF1100B0
:0400A800D2EF06F09D
:1003000001000A006400E80310274154534E2C42B8
:1003100054313230300D00415453504C2C25642C54
:10032000310D004154504C452C300D004154434692
:10033000473F0D004154444D2C257300286E756CC9
:100340006C2900415444480D00415444490D002B90
:100350002B2B0D0041540D000000C1EC08F0E7EC20
:1003600005F049EC07F0B6EC08F077EC07F0F28EF8
:10037000F28C000E01010101A76F000E0101A66FB2
:10038000000E01010101A16F000E0101A06F00012B
:10039000BA6F000E01010101A26F0001BA51000104
:1003A000BA6F000E01010101A86F0001BA510001EE
:1003B000BA6F000E01010101A36F0001BA510001E3
:1003C000BA6F000E01010101A46F0001BA51F8ECEF
:1003D00007F0000E416E0A0E406E1FEC08F000D0D0
:1003E00001010101A64BA72B03D002D001D000D000
:1003F00001010101A629BF0ED8B4A719D8A401D0C4
:1004000001D017D001010101A04BA12B0101010175
:10041000A0510A0AA111D8A401D001D00AD0000E1F
:1004200001010101A16F000E0101A06F02D001D0F6
:1004300000D001010101A46701D001D00CD001015D
:10044000010E416E0101A50E406E19EC07F001018D
:100450000101A26F09D00001BA6F000E0101010174
:10046000A26F0001BA5100D001010101A251D8B41C
:1004700001D001D095D086D085D001010101A551D0
:100480000D0AD8A401D001D08BD00001BA6F010EA3
:1004900001010101A36F0001BA5182D081D0010195
:1004A0000101A5510A0AD8A401D001D009D0000148
:1004B000BA6F020E01010101A36F0001BA5170D0A1
:1004C0000001BA6F000E01010101A36F0001BA51D2
:1004D00067D066D001010101A851010D0101600E34
:1004E000F324D96E0101010EF420DA6E0101A5C1D9
:1004F000DFFFFF0E01010101A8250001BA6F000115
:100500000001BB6BFF0EBB230101600E0001BA2589
:10051000D96E0101010E0001BB21DA6E0D0EDF6202
:1005200001D001D02AD001010101A851010D010122
:10053000600EF324D96E0101010EF420DA6E0A0E6A
:10054000DF6201D001D019D00001BA6F010E0101A4
:100550000101A46F0001BA510001BA6F000E010140
:100560000101A86F0001BA510001BA6F000E01012C
:100570000101A36F0001BA5113D001010101A82BA1
:100580000FD00ED001010101A351000AD8B475D7D4
:10059000010AD8B484D7030AD8B49CD701D000D0BC
:1005A00001010101A451D8B401D001D04DD000D037
:1005B00001010101A851010D0101600EF324D96E62
:1005C0000101010EF420DA6EDF5000010001B76F67
:1005D00000018AEC06F001010101A82B01010101D3
:1005E000A851010D0101600EF324D96E0101010E25
:1005F000F420DA6E0A0EDF6201D001D0D9D700D024
:1006000001010101A851010D0101600EF324D96E11
:100610000101010EF420DA6EDF5000010001B76F16
:1006200000018AEC06F00001BA6F000E0101010121
:10063000A86F0001BA510001BA6F000E010101015B
:10064000A46F0001BA5100D001010101A629D8B45C
:10065000A729D8A401D001D007D0000E01010101C3
:10066000A76F000E0101A66F0400BAD654EF00F088
:100670000001AC6F000E00010001B16F0001AC5130
:100680000001AC6F000E00010001B26F0001AC511F
:1006900045C0B3F046C0B4F047C0B5F00001AC6F40
:1006A0000C0E00010001B66F0001AC510001000109
:1006B000B66701D001D002D034D033D000010001A0
:1006C000B3A101D001D004D000010001B22B00D0B1
:1006D000010E0001AC6F0001B3C0ADF00001B4C069
:1006E000AEF00001B5C0AFF00001AC290001B06F61
:1006F00005D00001D890AF33AE33AD330001B02F39
:10070000F8D7ADC0B3F0AEC0B4F0AFC0B5F00001E3
:100710000001B60700010001B66701D001D0CED7B5
:1007200000D00001AC6F0C0E00010001B66F00019B
:10073000AC5100010001B66701D001D002D033D026
:1007400032D000010001B3A101D001D004D00001DA
:100750000001B12B00D0010E0001AC6F0001B3C04D
:10076000ADF00001B4C0AEF00001B5C0AFF00001C3
:10077000AC290001B06F05D00001D890AF33AE3383
:10078000AD330001B02FF8D7ADC0B3F0AEC0B4F0B8
:10079000AFC0B5F000010001B60700010001B66767
:1007A00001D001D0CED745C0B3F046C0B4F047C0A9
:1007B000B5F000010001B1A101D001D009D00001C4
:1007C000AC6F010E446E0001AC5187EC08F009D00B
:1007D0000001AC6F000E446E0001AC5187EC08F0D4
:1007E00000D00001AC6F180E00010001B66F0001CF
:1007F000AC5100010001B66701D001D002D036D063
:1008000035D000010001B5AF01D001D009D0000101
:10081000AC6F010E446E0001AC5187EC08F009D0BA
:100820000001AC6F000E446E0001AC5187EC08F083
:1008300000D000010001B6070001B3C0ACF0000118
:10084000B4C0ADF00001B5C0AEF00001D890AC3737
:10085000AD37AE37ACC0B3F0ADC0B4F0AEC0B5F09C
:1008600000010001B66701D001D0CBD70001000123
:10087000B2A101D001D009D00001AC6F000E446ECE
:100880000001AC5187EC08F009D00001AC6F010EFB
:10089000446E0001AC5187EC08F000D0120000015A
:1008A000AC6F000E00010001B06F0001AC510001FF
:1008B000AC6F000E00010001B16F0001AC5145C0EA
:1008C000B2F046C0B3F047C0B4F048C0B5F0000184
:1008D000AC6F100E00010001B66F0001AC510001B9
:1008E0000001B66701D001D002D02ED02DD000017A
:1008F0000001B2A101D001D003D000010001B12B51
:100900000001B2C0ACF00001B3C0ADF00001B4C052
:10091000AEF00001B5C0AFF00001D890AF33AE33F8
:10092000AD33AC33ACC0B2F0ADC0B3F0AEC0B4F0D8
:10093000AFC0B5F000010001B60700010001B667C5
:1009400001D001D0D4D700D00001AC6F100E00014F
:100950000001B66F0001AC5100010001B66701D083
:1009600001D002D02DD02CD000010001B2A101D0C5
:1009700001D003D000010001B02B0001B2C0ACF0E7
:100980000001B3C0ADF00001B4C0AEF00001B5C0CD
:10099000AFF00001D890AF33AE33AD33AC33ACC061
:1009A000B2F0ADC0B3F0AEC0B4F0AFC0B5F000016E
:1009B0000001B60700010001B66701D001D0D4D70D
:1009C00045C0B2F046C0B3F047C0B4F048C0B5F07F
:1009D00000010001B0A101D001D009D00001AC6F2D
:1009E000010E446E0001AC5187EC08F009D0000103
:1009F000AC6F000E446E0001AC5187EC08F000D0E3
:100A00000001AC6F200E00010001B66F0001AC5177
:100A100000010001B66701D001D002D038D037D034
:100A200000010001B5AF01D001D009D00001AC6FC9
:100A3000010E446E0001AC5187EC08F009D00001B2
:100A4000AC6F000E446E0001AC5187EC08F000D092
:100A500000010001B607D89000010001B235000185
:100A60000001B26F00010001B3350001B36F000156
:100A70000001B4350001B46F00010001B53500017B
:100A8000B56F00010001B66701D001D0C9D70001E0
:100A90000001B1A101D001D009D00001AC6F000E5E
:100AA000446E0001AC5187EC08F009D00001AC6F36
:100AB000010E446E0001AC5187EC08F000D012002A
:100AC000A338010B2D6EA438010B2D140009D8B4E6
:100AD00001D001D036D070AC01D001D032D029B2D3
:100AE00001D001D02CD02B50010D0101320EF32486
:100AF000D96E0101010EF420DA6EDF50736E29A069
:100B000001D001D002D0299000D02A062A6601D057
:100B100001D002D0298200D02B2A2B50140AD8A44D
:100B200001D001D006D02D6E000E2B6E2D5001D0BD
:100B300000D072A201D001D0FCD703D002D0A3987C
:100B400000D071A401D001D004D074CF2EF0298A36
:100B50003DD071A201D001D006D07198718874CFB8
:100B60002EF0298A33D029A401D001D004D074CF2B
:100B70002EF029882BD029B401D001D027D0299874
:100B800029962850010D0101000EF324D96E0101B0
:100B9000010EF420DA6E74CFDFFF262A2650320AC7
:100BA000D8A401D001D002D0298400D0282A28500E
:100BB000320AD8A401D001D009D02D6E000E286EC3
:100BC0002D5004D003D002D001D000D01200700EFE
:100BD000D36E000ED26EC00E9B6E00D0D3A401D097
:100BE00001D0FCD700D0000EF26EF50EF16E000EB3
:100BF000F06E000E9E6E000EA16E000EA46E000E32
:100C00007B6E000E7E6E000E9D6E000EA06E000EBE
:100C1000A36E000E7A6E000E7D6E000E9F6E000EAB
:100C2000A26E000EA56E000E7C6E000E7F6E200E72
:100C3000926EC00E936E800E946E000E956E090E2D
:100C4000966E400E806E000E816E010E826E000E5A
:100C5000836E000E846E000E0F010F01386F000EC0
:100C60000F010F01396F000E0F010F013A6F000ED7
:100C70000F010F013B6F000E0F010F013C6F1200BF
:100C80000001AC6F000E00010001AD6F0001AC511E
:100C90000001AC6F000E00010001AE6F0001AC510D
:100CA0000001AC6F200E00010001AF6F0001AC51DC
:100CB00000010001AF6701D001D002D02AD029D0B5
:100CC00048AE01D001D009D00001AC6F010E446ED6
:100CD0000001AC5187EC08F009D00001AC6F000EA8
:100CE000446E0001AC5187EC08F000D00001000117
:100CF000AF07D8904534456E4634466E4734476E4C
:100D00004834486E00010001AF6701D001D0D8D748
:100D100000D012000001B86F010E00010001B96F90
:100D20000001B851B18029D0B7C045F0D0EC07F030
:100D300037D0B7C045F046EC08F032D000010001D2
:100D4000B751456E466A476A38EC03F029D0000176
:100D50000001B751456E466A476A486A40EC06F0A2
:100D60001FD000010001B751456E466A476A486AC4
:100D70004FEC04F015D014D013D000010001B9518C
:100D8000000AD8B4D1D7010AD8B4D3D7030AD8B44B
:100D9000D5D7010AD8B4DBD7070AD8B4E2D700D038
:100DA000B190120001EE00F0600EEE6AE806FDE17F
:100DB00000EE60F0370EEE6AE806FDE100EE01F0AD
:100DC0002C0EEE6AE806FDE13C0EF66E110EF76E93
:100DD000000EF86E01EEA9F010EE1AF00900F5CF42
:100DE000EEFFE550E150FAE1560EF66E110EF76E89
:100DF000000EF86E00EE97F010EE15F00900F5CF3A
:100E0000EEFFE550E150FAE17E0EF66E110EF76E40
:100E1000000EF86E00EE49F010EE04F00900F5CF78
:100E2000EEFFE550E150FAE1000EF86E0001ADEF83
:100E300001F029A601D001D003D0000E29D028D07E
:100E4000A39A29942750010D0101000EF324D96EB5
:100E50000101010EF420DA6E40C0E1FF41C0E2FF63
:100E6000DFCFE7FF2606266601D001D002D0298613
:100E700000D0272A2750320AD8A401D001D005D0AB
:100E8000426E000E276E425000D0A38A010E00D0A1
:100E90001200140EB16E240EAC6E900EAB6E000EEE
:100EA000B86EB88A9694969292968494849280961C
:100EB000958095829584948E949C958E958C929035
:100EC000928E0F010F013A9F0F010F013A9D0F0102
:100ED0000F013B9F0F010F013B9D0F010F01389741
:100EE0000F010F013C930F010F013C951200299057
:100EF0002982406E000E2A6E4050406E000E2C6E0D
:100F00004050406E000E2B6E405029942986299A3D
:100F10002998406E000E266E4050406E000E286EDE
:100F20004050406E000E276E4050210E756E728448
:100F3000959C958E9F98A59A728A7188718EA388C8
:100F4000A38AF28EF28C120029A001D001D002D027
:100F500026D025D0A3982C50010D0101320EF32488
:100F6000D96E0101010EF420DA6E40C0DFFF299234
:100F70002A2A2A50140AD8A401D001D002D02980EC
:100F800000D02C2A2C50140AD8A401D001D005D0AE
:100F9000416E000E2C6E415000D0A38800D012008C
:100FA00045C047F0466E040E486E4650486601D074
:100FB00001D002D01CD01BD047A601D001D007D051
:100FC000466E010E446E465087EC08F007D0466E20
:100FD000000E446E465087EC08F000D0480647509B
:100FE0004724476E486601D001D0E6D700D01200F2
:100FF0008090000E416E1E0E406E1FEC08F0456E94
:10100000410E406E4550A4EC07F0456E540E406E04
:101010004550A4EC07F0456E0A0E406E4550A4EC16
:1010200007F0456E0D0E406E4550A4EC07F0000E23
:10103000416E1E0E406E1FEC08F080801200000E04
:10104000446E000E436E000E446E000E436E10D0D0
:1010500000F000F000F000F000F000F000F000F010
:1010600000F000F0010E4324436E000E4420446E55
:101070004450800A426E4050435C4150800A4258BE
:10108000D8A001D001D0E4D700D01200466E080EDF
:10109000476E4650476601D001D002D01CD01BD00D
:1010A00045AE01D001D007D0466E010E446E4650C9
:1010B00087EC08F007D0466E000E446E465087EC71
:1010C00008F000D0470645504524456E476601D0DC
:1010D00001D0E6D700D01200000E436E000E426E23
:1010E000000EB36E000EB26E08D0B350436E426A6B
:1010F000B2504226000E432200D04250405C435082
:101100004158D8B001D001D0F0D700D012004466C9
:1011100001D001D002D0828002D0808C00D0010E9C
:10112000416EE00E406E6CEC08F08290809C170ED1
:10113000416E700E406E6CEC08F01200464646465A
:1011400046464646464646460030303144393834F5
:101150003338433431003030314439383433384354
:101160003431003132333430303030008090170E5B
:10117000416E700E406E1FEC08F0808012004646F3
:0411800046461200CD
:020000040020DA
:08000000FFFFFFFFFFFFFFFF00
:020000040030CA
:0E000000FF18193FFFB581FF03C003E0034066
:00000001FF
